:200000000C94DD030C9405040C9405040C9405040C9405040C9405040C9405040C940504C1
:200020000C9405040C9405040C9405040C9405040C9405040C9405040C9405040C94050478
:200040000C947A2D0C9405040C9450300C9482300C9405040C9405040C9405040C9405049A
:200060000C9405040C9405048B2A7B2A722A692A602A572A4E2A452A3C2A332A2D2A036E28
:20008000DB363D9A9999993DABAAAA2A3E000000803F072C7AA5BA6CC590DA3B9365FC8BE9
:2000A000BC53F810FD3C5692834DBD879D3AB63DCBC9BF5BBE73DA0FC93F05A84CCDB2D40E
:2000C0004EB93836A9020C50B9918688083CA6AAAA2ABE000000803F0664EC1B3C04BC16E4
:2000E0003E3BE5B93CC93C37C29E5A3D660498083EEA69AAAA3E000000803F00000000008E
:20010000003E5B4F5B3E3E6B4F6B3E1C3E7C3E1C183C7E3C181C577D571C1C5E7F5E1C0091
:20012000183C1800FFE7C3E7FF0018241800FFE7DBE7FF30483A060E2629792926407F0528
:200140000507407F05253F5A3CE73C5A7F3E1C1C08081C1C3E7F14227F22145F5F005F5FF7
:2001600006097F017F006689956A606060606094A2FFA29408047E040810207E20100808B4
:200180002A1C08081C2A08081E101010100C1E0C1E0C30383E3830060E3E0E060000000081
:2001A0000000005F00000007000700147F147F14242A7F2A12231308646236495620500046
:2001C00008070300001C2241000041221C002A1C7F1C2A08083E080800807030000808086E
:2001E0000808000060600020100804023E5149453E00427F400072494949462141494D33D7
:200200001814127F1027454545393C4A49493141211109073649494936464949291E0000B0
:20022000140000004034000000081422411414141414004122140802015909063E415D5934
:200240004E7C1211127C7F494949363E414141227F4141413E7F494949417F090909013E7C
:20026000414151737F0808087F00417F41002040413F017F081422417F404040407F021C26
:20028000027F7F0408107F3E4141413E7F090909063E4151215E7F09192946264949493252
:2002A00003017F01033F4040403F1F2040201F3F4038403F6314081463030478040361594F
:2002C000494D43007F4141410204081020004141417F040201020440404040400003070824
:2002E0000020545478407F284444383844444428384444287F385454541800087E0902188F
:20030000A4A49C787F0804047800447D40002040403D007F1028440000417F40007C0478A9
:2003200004787C080404783844444438FC1824241818242418FC7C0804040848545454241D
:2003400004043F44243C4040207C1C2040201C3C4030403C44281028444C9090907C4464AE
:20036000544C4400083641000000770000004136080002010204023C2623263C1EA1A16171
:20038000123A4040207A385454555921555579412254547842215554784020545579400C50
:2003A0001E5272123955555559395454545939555454580000457C410002457D420001454E
:2003C0007C407D1211127DF0282528F07C545545002054547C547C0A097F49324949493245
:2003E0003A4444443A324A4848303A4141217A3A42402078009DA0A07D3D4242423D3D40BF
:2004000040403D3C24FF2424487E4943662B2FFC2F2BFF0929F620C0887E090320545479B6
:20042000410000447D413048484A32384040227A007A0A0A727D0D19317D2629292F2826A3
:200440002929292630484D4020380808080808080808382F10C8ACBA2F102834FA00007BA9
:20046000000008142A142222142A14085500550055AA55AA55AAFF55FF55FF000000FF0037
:20048000101010FF00141414FF001010FF00FF1010F010F0141414FC001414F700FF00006E
:2004A000FF00FF1414F404FC141417101F10101F101F1414141F00101010F0000000001FAC
:2004C000101010101F10101010F010000000FF101010101010101010FF10000000FF1400CC
:2004E00000FF00FF00001F10170000FC04F414141710171414F404F40000FF00F714141418
:2005000014141414F700F7141414171410101F101F141414F4141010F010F000001F101F26
:200520000000001F14000000FC140000F010F01010FF10FF141414FF141010101F000000BC
:2005400000F010FFFFFFFFFFF0F0F0F0F0FFFFFF0000000000FFFF0F0F0F0F0F38444438B2
:2005600044FC4A4A4A347E02020606027E027E0263554941633844443C04407E201E2006D2
:20058000027E020299A5E7A5991C2A492A1C4C7201724C304A4D4D303048784830BC625AFE
:2005A000463D3E494949007E0101017E2A2A2A2A2A44445F444440514A444040444A5140A1
:2005C0000000FF0103E080FF000008086B6B083612362436060F090F060000181800000090
:2005E0001010003040FF0101001F01011E00191D1712003C3C3C3C000000000000000100DB
:20060000FF0032000100000102000007030030100400000008000202090000000A00000038
:200620000C0000000D0000000F00000010000000110007001200000013000000FF00C8007E
:200640001000901611002702FF00320012001A00FF0032001300001829002A00FF0032006D
:200660003000000031000000320000003500060236000808370007003800010239000000B2
:200680003C0000003D0000002000000021000000500000005100EF005200000053003F012B
:2006A000600000A7610003006A000000900010009200000093000300950000119700000060
:2006C00098000000070033010100B903FF8357FFFAB30400000606B60125B00168CC01052E
:2006E000B10600151C1C83AAC0065050013C1E08B4070240002A2A0D783A01553601C0356E
:200700000100440200021100FF962900FF322E89298F2B02E200E401E510E601E710E87002
:20072000F200EA00EB20EC3CEDC8E938F1011B1A1A022461255C183619011F88FF051F80D9
:20074000FF051F90FF051FD4FF05170536092838FF28283C02000300040005EF060007009B
:200760000801093F0000000800020100000304070000000000000000010204081020408010
:2007800001020408102001020408102004040404040404040202020202020303030303039D
:2007A00000000000250028002B0000000000240027002A004B07B230AF0711241FBECFEF92
:2007C000D8E0DEBFCDBF14E0A0E0B1E0E4E4FAE702C005900D92A83BB107D9F726E0A8EB90
:2007E000B4E001C01D92AD32B207E1F717E0C8EBD7E004C02297FE010E944B37C43BD107AD
:20080000C9F70E94B2330C94153D0C94000081EE94E00E94BA3187EE94E00E94BA318DEE9E
:2008200094E00E94BA318BE095E00C94BA31FF920F931F93CF93DF936AE28BE095E00E94C5
:200840005B338C018B3091050CF442C0C1E0D0E0F12CBE018BE095E00E942D33FC0180811D
:20086000F8262196C017D107A1F78F2D8F7090E0EC010A9714F4E09601C0E796B8016E5F61
:200880007F4F8BE095E00E942D33FC018081992787FD9095C817D907D9F4CF2DC295CF7023
:2008A000FFE9D0E0FF1510F0E09601C0E796B8016F5F7F4F8BE095E00E942D33FC018081A3
:2008C000992787FD9095C817D90711F481E001C080E0DF91CF911F910F91FF900895EF929C
:2008E000FF920F931F93CF93DF938C017B010E9417048823F9F040E050E06CE28BE095E067
:200900000E943F33EC01219697FF0EC0AE016CE28BE095E00E943F339C01AE016BE075E0DE
:20092000C8010E945F330BC0AE0181E0E81AF10821F7ECCF60E471E0C8010E942832C801EE
:20094000DF91CF911F910F91FF90EF900895EF92FF920F931F93CF93DF931F92CDB7DEB7C8
:200960007C018BE395E029830E94C719B7018BE395E00E94D3192981622F8BE395E00E9400
:20098000CD19B8018BE395E00E9445310F90DF91CF911F910F91FF90EF900895EF92FF9241
:2009A0000F931F93E0913B05F0913C050680F781E02D7C018BE395E009951F910F91FF9088
:2009C000EF900895EF92FF920F931F93E0913B05F0913C050484F585E02D7C018BE395E0B3
:2009E00009951F910F91FF90EF9008950F931F938C018BE395E00E9425151F910F910895D1
:200A00000F931F938C018BE395E00E9418171F910F9108952F923F924F925F926F927F92DE
:200A20008F929F92AF92BF92CF92DF92EF92FF920F931F93CF93DF93CDB7DEB76F970FB6E2
:200A4000F894DEBF0FBECDBF7C010E949D27803E974009F007C24091D1045091D2044150EC
:200A6000510988E1849F9001859F300D11242E0D3F1DE3EFF2E081E090E041915191421750
:200A80005307C4F08A01021B130BFC01EE0FFF1FEB53FE4F20813181398F288FFC01EE0F13
:200AA000FF1FED53FE4F2080318031E03B8B099729F405C001968F309105F9F61B8AB801A8
:200AC000882777FD8095982F0E94EE3424E13EEA41EE52E40E94533425E236E049E450E41A
:200AE0000E94D1336B017C016093F3047093F4048093F5049093F6048090C0049090C104A0
:200B0000A090C204B090C3049B01AC01C501B4010E94D1336093B8047093B9048093BA042E
:200B20009093BB040E9450342B013C016091D9047091DA046A557109882777FD8095982F5F
:200B40000E94EE349B01AC01C301B2010E942C360E94BB346C8B7D8B8E8B9F8B8C899D89FF
:200B60009B8F8A8F23EB3CE049EC5FE3C501B4010E94D033A70196010E94D1336B017C01A3
:200B80000E9450346C8F7D8F8E8F9F8FB101882777FD8095982F0E94EE344B015C01688DCA
:200BA000798D62197309882777FD8095982F0E94EE3420E030EC42E354E40E9453342B01A7
:200BC0003C016BEC72E0601B710B882777FD8095982F0E94EE349B01AC01C301B2010E9413
:200BE0002C369B01AC01C501B4010E94D1330E94BB34882777FD8095982F0E94EE3424E3CE
:200C000030E847EB5BE30E942C3620E030E040E85FE30E94D1334B015C012C893D89B9014A
:200C2000882777FD8095982F0E94EE3420E030E040E05FE30E942C3620E030E044E352E40E
:200C40000E94D1332B013C01A50194016C8D7D8D8E8D9F8D0E942C36A30192010E942C36C1
:200C60000E94BB341B0138E7230E311CC701B6010E948F36A50194010E942C36A3019201CE
:200C80000E942C360E94BB347B0123ECE20EF11C4091BC045091BD046091BE047091BF048D
:200CA00022E030E080E090E00E9400058A8D9B8D22E030E0A701B101181619061CF08FEE2A
:200CC0009BE702C08FEF9FEF0E9400053092BF042092BE04F092BD04E092BC048091E004BA
:200CE0008111C0C02EE030E04DE750E064E170E08FEF9FEF0E9400059B89992369F00A30A5
:200D0000110554F42EE030E04DE750E064E170E080E098EF0E940005C80168E170E00E94CC
:200D20001337882777FD8095982F0E94EE3429EB36E344ED5DE30E942C360E94503420E0DE
:200D400030E040EA51EC0E942C366B017C0120E030E0A9010E94283618164CF420E030E0F7
:200D600040E651E4C701B6010E94D13308C0A701960160E070E080E691E40E94D0330E943A
:200D8000BB345B01C8016CE070E00E941337882777FD8095982F053F2FEF12074CF00E945F
:200DA000EE3420E030E040E05FE30E94D13308C00E94EE3420E030E040E05FE30E94D03356
:200DC0000E94BB3469507109810991090E94EE34A70196010E94D1330E94BB3495014DE727
:200DE00050E080E090E00E9400052FE030E04DE750E064E170E08FEE9BE70E94F6040D305C
:200E0000110584F54AE0B801CE010D960E94763263E471E0CE0107960E942832BE01635F23
:200E20007F4FCE0107960E94E132BC01CE0101960E9455328E010F5F1F4F21E030E04AE7CA
:200E400050E06DE070E080E090E00E94A704C8010E94BA31CE0107960E94BA31CE010D96E7
:200E60000E94BA316F960FB6F894DEBF0FBECDBFDF91CF911F910F91FF90EF90DF90CF909D
:200E8000BF90AF909F908F907F906F905F904F903F902F900895CF92DF92EF92FF920F93E9
:200EA0001F9342E1E42E0EE02FE040E161E18BE395E00E946D1C8DB79EB70C970FB6F89450
:200EC0009EBF0FBE8DBFADB7BEB711968CE0E4E2F1E001900D928A95E1F7C0903001D09011
:200EE0003101E0903201F09033010091340110913501209136013091370140913801509100
:200F0000390160913A0170913B0183E195E00E94C52768EA74E08BE095E00E94283268EAF3
:200F200074E08DEE94E00E94283268EA74E087EE94E00E9428328DB79EB70C960FB6F8945B
:200F40009EBF0FBE8DBF68EA74E081EE94E01F910F91FF90EF90DF90CF900C9428320C94CC
:200F600007049F92AF92BF92CF92DF92EF92FF920F931F93CF93DF93CDB7DEB7C456D1098A
:200F80000FB6F894DEBF0FBECDBF5C010E94C42D6B017C018E010F5F1F4FCE018B599F4F25
:200FA000F801E817F90711F01192FBCF68EA74E08BE095E00E945E3284E6C80ED11CE11CE9
:200FC000F11C8BE895E00E94242F982E0E94C42DC616D706E806F90610F480E02BC0E4E213
:200FE0009E12EFCF99822AE530E0AE014E5F5F4F6AE08BE895E00E9485317C01FF24F8011C
:20100000EE0DFF1D1082B501C8010E94D5390817190719F76801C601801B910B8E159F05FB
:2010200044F4F60161916F018BE095E00E94CE32F2CF81E0CC59DF4F0FB6F894DEBF0FBE6D
:20104000CDBFDF91CF911F910F91FF90EF90DF90CF90BF90AF909F9008958BE895E00E9424
:201060000B2F892B29F08BE895E00E94242FF5CF08959C018BE395E00E94EC2108954F927E
:201080005F926F927F92AF92BF92CF92DF92EF92FF920F931F93CF93DF9300E010E0C0E03F
:2010A000D0E055E0A52EB12CB801882777FD8095982F0E94EE3425E33AEF4EE85CE30E94D7
:2010C0002C366B017C016093F3047093F4048093F5049093F6040E94503420E030E044EB52
:2010E00052E40E942C3620E030E040EF52E40E94D1330E94BB342B013C01709306056093A0
:201100000505C701B6010E948F3620E030E044EB52E40E942C3620E030E043E453E40E9456
:20112000D1330E94BB347093040560930305AB01B2018FEF97E00E943908CE01B5010E94B5
:201140001337892B71F44091030550910405609105057091060522E030E08FEF97E00E94B9
:20116000000521960A5F1F4FCC33D10509F09CCFDF91CF911F910F91FF90EF90DF90CF90A7
:20118000BF90AF907F906F905F904F9008950F931F93CF93DF9300D000D000D0CDB7DEB797
:2011A00064E670E08BE095E00E94EB3126E040E855E260E070E08BE895E00E94EE2F61E01A
:2011C00083E10E949C2E8BE395E00E94EE1961E473E98BE395E00E948A2365E471E0CE0177
:2011E00001960E9428328E010F5F1F4F22E030E04AE050E060E070E08FEF9FEF0E94A7049C
:20120000C8010E94BA318FEE90E090930A05809309058FE391E0909308058093070568EBB3
:201220007BE080E090E00E94F32D60E070E08BE395E00E949A210E943F0826960FB6F894FB
:20124000DEBF0FBECDBFDF91CF911F910F910895EF92FF920F931F937C018BE395E00E9473
:201260000E211F910F91FF90EF9008952F923F924F925F926F927F928F929F92AF92BF92EA
:20128000CF92DF92EF92FF920F931F93CF93DF93CDB7DEB7CE57D1090FB6F894DEBF0FBE6F
:2012A000CDBF2B013C01CA01B901EB96ECAEFDAE0EAF1FAFEB97740120E030E040E752E4FF
:2012C0000E9453349B01AC01C301B2010E94D1331B012C0120E030E040E752E4C601B5014C
:2012E0000E9453349B01AC01EB966CAD7DAD8EAD9FADEB970E94D1338B019C01B201A1018B
:20130000CE0101960E94BA290E947D276C010E9475277C010E946D278C010E9485275C0106
:201320000E9495274C010E949D279501A401BC01CE0101960E94F429CE0101960E949B2AB2
:20134000CE0101960E94762D9093D2048093D104CE0101960E94C42C6B017C01CE010196BA
:201360000E94CC2C6093C0047093C1048093C2049093C304CE0101960E94D42C4B015C01E0
:201380000E94BB347093D0046093CF04882777FD8095982F0E94EE349B01AC01C501B40198
:2013A0000E94D03320E030E040E752E40E942C360E94BB347093CE046093CD04CE01019687
:2013C0000E94262D4B015C010E94BB347093CC046093CB04882777FD8095982F0E94EE3486
:2013E0009B01AC01C501B4010E94D03320E030E040E752E40E942C360E94BB347093CA04B1
:201400006093C90422EE3BEC46E950E46091C0047091C1048091C2049091C3040E94D13392
:201420004B015C010E945034EF966CAF7DAF8EAF9FAFEF9723E333E345EE51E4C701B601FD
:201440000E942C3620E030E044E352E40E94D133EB966CAF7DAF8EAF9FAFEB979B01AC0157
:20146000EF966CAD7DAD8EAD9FADEF970E942C360E94BB343B0128E7620E711CC501B4013F
:201480000E948F36EB962CAD3DAD4EAD5FADEB970E942C360E94BB345B0123ECA20EB11C9B
:2014A0004091C5045091C6046091C7047091C80422E030E080E090E00E9400052DE230E0B6
:2014C00043EC50E068E770E08FEE9BE70E94F604A201910160E070E084EB92E40E94D03324
:2014E0001B012C012AE939E94BEB51E40E94D13320E030E040E05FE30E942C3620E030E0D7
:2015000040E753E40E94D1330E94BB34AB0168E770E08FEF97E00E94390820E030E040E0E3
:201520005FE3C201B1010E942C3620E030E040E753E40E94D1330E94BB34AB0168E770E000
:201540008FEF97E00E9439082AE939E94BEB51E4C201B1010E94D03320E030E040E05FE387
:201560000E942C3620E030E040E753E40E94D1330E94BB34AB0168E770E08FEF97E00E94E0
:2015800039088091C4048823D1F023E333E345E652E4C701B6010E942C3620E030E040E88D
:2015A00050E40E944C3422E030E0A501B30187FF03C080EE9BEF09C080EE9FEF06C022E09B
:2015C00030E0A501B3018FE190E00E9400057092C8046092C704B092C604A092C504809177
:2015E000E00481113DC12091090530910A050DE110E046E450E060E070E080E090E00E94AE
:20160000280926E030E040E550E06CED70E080EE9FEF0E94000500E510E026EE30E040E5C4
:2016200050E062ED70E080EE9FEF0E94CE0404E110E026EE30E041E550E062ED70E080E01D
:2016400090E00E94280968EA74E0CE018F589F4F0E9428328091CD049091CE040A973CF45B
:201660006FE471E0CE018F589F4F0E945E326091CD047091CE044AE0CE01815A9F4F0E94F7
:2016800076326091CF047091D0044AE0CE0185599F4F0E94763261E571E0CE018B599F4FC2
:2016A0000E942832BE0165597F4FCE018B599F4F0E94E1326BE571E00E94F432BE016F589E
:2016C0007F4F0E94E132BE01615A7F4F0E94E132BC01CE01875A9F4F0E9455328E01075A16
:2016E0001F4F22E030E046E450E06AE070E08091DD049091DE040E94A704C8010E94BA31DE
:20170000CE018B599F4F0E94BA31CE0185599F4F0E94BA31CE01815A9F4F0E94BA3120919D
:20172000090530910A0503E110E04CE251E060E070E080E090E00E94280926E030E041E32B
:2017400051E06CED70E080EE9BEF0E94000501E311E026EE30E041E351E062ED70E080EEB5
:201760009BEF0E94CE040FE010E026EE30E042E251E062ED70E080E090E00E94280968EA7F
:2017800074E0CE018F589F4F0E945E328091C9049091CA040A973CF46FE471E0CE018F5827
:2017A0009F4F0E945E326091C9047091CA044AE0CE01815A9F4F0E9476326091CB047091AF
:2017C000CC044AE0CE0185599F4F0E9476326DE571E0CE018B599F4F0E942832BE0165596D
:2017E0007F4FCE018B599F4F0E94E1326BE571E00E94F432BE016F587F4F0E94E132BE0194
:20180000615A7F4F0E94E132BC01CE01875A9F4F0E9455328E01075A1F4F22E030E041E372
:2018200051E06AE070E08091DD049091DE040E94A704C8010E94BA31CE018B599F4F0E9402
:20184000BA31CE0185599F4F0E94BA31CE01815A9F4F0E94BA31CE018F589F4F0E94BA311F
:20186000C258DF4F0FB6F894DEBF0FBECDBFDF91CF911F910F91FF90EF90DF90CF90BF908E
:20188000AF909F908F907F906F905F904F903F902F900895AF92BF92CF92DF92EF92FF923E
:2018A0000F931F93CF93DF9300D000D000D0CDB7DEB7C090B804D090B904E090BA04F090A0
:2018C000BB04A70196016091C0047091C1048091C2049091C3040E94D0339B01AC010E9440
:2018E000D1330E94503420E030E040E251E40E942C360E94BB346830710524F47FE1A72E67
:20190000B12C03C0A12C68EFB62EA7019601C701B6010E94D1332DEC3CEC4CEC5DE30E9460
:20192000D0330E94503420E030E040E451E40E942C366B017C0120E030E0A9010E9428366E
:2019400020E030E040E05FE387FD05C0C701B6010E94D13304C0C701B6010E94D0330E941D
:20196000BB347B0166E671E0CE0101960E9428328E010F5F1F4F21E030E040EF50E06CE0D6
:2019800070E08091DD049091DE040E94A704C8010E94BA3104E210E02EE130E04CEF50E0FF
:2019A00065E070E080E090E00E9428090EE110E02EE130E04FEF50E065E070E08FEE9BE7EF
:2019C0000E94E2040EE011E021E230E04EE051E065E070E08FEE9BE70E94CE044EE051E0C7
:2019E0004E195F098A0120E230E067E070E0C5010E94CE046091B8047091B9048091BA0470
:201A00009091BB049B01AC010E94D1332DEC3CEC4CEC5DE30E94D0330E948F36905820E04A
:201A200030E040E451E40E942C366B017C0120E030E0A9010E94283620E030E040E05FE324
:201A400087FD05C0C701B6010E94D13304C0C701B6010E94D0330E94BB344DE051E0461BE0
:201A6000570B03E010E023E030E066E070E080E098EF0E94280926960FB6F894DEBF0FBE57
:201A8000CDBFDF91CF911F910F91FF90EF90DF90CF90BF90AF9008953F924F925F926F92EF
:201AA0007F928F929F92AF92BF92CF92DF92EF92FF920F931F93CF93DF93CDB7DEB7C455F3
:201AC000D1090FB6F894DEBF0FBECDBF69E070E0CE0107960E946F0426E030E044E050E061
:201AE000BE01695F7F4FCE0101960E945F33CE0101960E94A4336B017C0169E070E0CE01C7
:201B000043960E946F0424E030E042E050E0BE016D5E7F4FCE010D960E945F33CE010D9601
:201B20000E94A4332B013C0169E070E0CE014F960E946F0422E030E040E050E0BE01615E81
:201B40007F4FCE0149960E945F33CE0149960E94A4332D966CAF7DAF8EAF9FAF2D9761E014
:201B600070E0CE018B960E946F0426E030E044E050E0BE01655D7F4FCE0185960E945F3339
:201B8000CE0185960E94A43361966CAF7DAF8EAF9FAF619761E070E0CE01C7960E946F044F
:201BA00024E030E042E050E0BE01695C7F4FCE01C1960E945F33CE01C1960E94A4334B0128
:201BC0005C0161E070E0CE018D5B9F4F0E946F0422E030E040E050E0BE016D5B7F4FCE01D7
:201BE000CD960E945F33CE01CD960E94A433DC01CB01760182012B962EAD3FAD2B972F96F1
:201C00004EAD5FAD2F97B4010E94A127CE01CD960E94BA31CE018D5B9F4F0E94BA31CE0118
:201C2000C1960E94BA31CE01C7960E94BA31CE0185960E94BA31CE018B960E94BA31CE0144
:201C400049960E94BA31CE014F960E94BA31CE010D960E94BA31CE0143960E94BA31CE01D4
:201C600001960E94BA31CE0107960E94BA310E94DC26AB01BC0121E135E083E195E00E94A8
:201C800020296B017C010E94AB26B701A60183E195E00E946B29882319F082E090E002C0E9
:201CA00081E090E0909309018093080162E070E0CE0101960E946F046AE671E0CE010196F6
:201CC0000E940E33F82ECE0101960E94BA31FF2009F45EC00AE010E02AE030E04FE050E07B
:201CE00066E970E08091DD049091DE040E94E2042AE030E04FE050E060EA70E08091DD04C3
:201D00009091DE040E94E20404E110E020EB30E044E150E06AEA70E08091DD049091DE045A
:201D20000E94CE0424E030E044E150E064EB70E08091DD049091DE040E94F6042EEB30E06D
:201D400044E150E068EB70E08091DD049091DE040E94CE040AE010E02AE030E04FE050E0CF
:201D60006EEB70E08091DD049091DE040E94E2042AE030E04FE050E068EC70E08091DD042E
:201D80009091DE040E94E20481E08093DF040EC008E210E029E530E040E050E066E970E0AC
:201DA00080E090E00E9428091092DF048091E004811115C10DE110E029E530E048E250E048
:201DC00066E970E080E090E00E942809332433943092DF0463E070E0CE0107960E946F04EA
:201DE00022E030E040E050E0BE01695F7F4FCE0101960E945F33CE0101960E94A4337093B0
:201E0000DA046093D904CE0101960E94BA31CE0107960E94BA3165E070E0CE0107960E9485
:201E20006F0423E030E040E050E0BE01695F7F4FCE0101960E945F33CE0101960E94A433FE
:201E40007093D8046093D704CE0101960E94BA31CE0107960E94BA3163E070E0CE010796EA
:201E60000E946F0424E030E042E050E0BE01695F7F4FCE0101960E945F33CE0101960E94F0
:201E8000A4337093D6046093D504CE0101960E94BA31CE0107960E94BA3165E070E0CE0172
:201EA00007960E946F0425E030E043E050E0BE01695F7F4FCE0101960E945F33CE010196B3
:201EC0000E94A4337093D4046093D304CE0101960E94BA31CE0107960E94BA31E090D904AB
:201EE000F090DA041E141F040CF079C06090D7047090D804C3010197833B910508F06FC07C
:201F00008AE5E816F1040CF06AC080900801909009016091D3047091D404882777FD80951D
:201F2000982F0E94EE345B016C01B301882777FD8095982F0E94EE342B013C016091D504A3
:201F40007091D604882777FD8095982F0E94EE349B01AC01B701882777FD8095982F6296EB
:201F60002FAF629763963FAF639764964FAF649765965FAF65970E94EE34830172016296FE
:201F80002FAD629763963FAD639764964FAD649765965FAD65970E9436090E946D270E94E0
:201FA0000A050E944A0C0E943F086CE671E0CE0101960E9428328E010F5F1F4F22E030E0AF
:201FC00048E250E066E970E08091DD049091DE040E94A704C8010E94BA313092E004CC5AA4
:201FE000DF4F0FB6F894DEBF0FBECDBFDF91CF911F910F91FF90EF90DF90CF90BF90AF90E2
:202000009F908F907F906F905F904F903F9008954F925F926F927F928F929F92AF92BF9262
:20202000CF92DF92EF92FF920F931F93CF93DF93CDB7DEB7A8970FB6F894DEBF0FBECDBFF5
:20204000809106019091070183709927892B39F481E791E00E94B10781110E944C0D0E9449
:202060002D080E947D2720910601309107018217930709F42BC30E948D27FC01EE0FFF1FD8
:20208000EC5EFE4F60817181CE0145960E94CE390E949D27D82EC92E0E949527182F092F43
:2020A0000E948527CF92DF920F931F939F938F9388E791E09F938F939E012F5F3F4F6901FF
:2020C000DF922F930E94343A0E948D27FC01EE0FFF1FEC5EFE4F608171818DEE94E00E9454
:2020E0000E330FB6F894DEBF0FBECDBF882309F489C2B60187EE94E00E940E33882309F43A
:2021000081C20E946D278C010E947527ACE3A09F9001A19F300D1124280F391F6091CB041B
:202120007091CC044091C9045091CA04E091CF04F091D004AE9FC001AF9F900D1124E09149
:20214000CD04F091CE048E0F9F1F28173907C4F0A69FC001A79F900D1124840F951F8217CF
:20216000930774F08FEF9FEF9093DE048093DD0460E083E10E94D52E81E08093C4040CC00B
:202180008FE190E09093DE048093DD0461E083E10E94D52E1092C4048091DD049091DE04BD
:2021A0002091DB043091DC042817390731F01092E0049093DC048093DB04BE016B5E7F4F7D
:2021C000CE014F960E9428328E01015E1F4F22E030E04AE050E06AE070E08091DD049091DA
:2021E000DE040E94A704C8010E94BA31B601C8010E94283222E030E048E250E06AE070E0D8
:202200008091DD049091DE040E94A704C8010E94BA310E946D276C010E9475278C018EE149
:202220008C9DB0018D9D700D1124882777FD8095982F0E94EE344B015C01B801882777FDA0
:202240008095982F0E94EE3420E030E040E05FE30E942C369B01AC01C501B4010E94D133FE
:2022600020E030E047E853E40E94D13325E33AEF4EE85CE30E942C364B015C016093F30405
:202280007093F4048093F5049093F6040E94503420E030E044EB52E40E942C3623E333E35F
:2022A00043E35FE30E942C3620E030E040EF52E40E94D1330E94BB3470930D0160930C01F5
:2022C000C501B4010E948F3620E030E044EB52E40E942C3623E333E343E35FE30E942C361B
:2022E00020E030E043E453E40E94D1330E94BB3470930B0160930A010E94752716E09C015B
:20230000129FC001139F900D1124BC01625F7E4F882777FD8095982F0E94EE3425E33AEF88
:202320004EE85CE30E942C364B015C016093F3047093F4048093F5049093F6040E94503447
:2023400020E030E044EB52E40E942C3626E636E646E65FE30E942C3620E030E040EF52E4F5
:202360000E94D1330E94BB347093110160931001C501B4010E948F3620E030E044EB52E4B6
:202380000E942C3626E636E646E65FE30E942C3620E030E043E453E40E94D1330E94BB34FA
:2023A00070930F0160930E010E947D279C01129FC001139F900D1124BC01625F7E4F882735
:2023C00077FD8095982F0E94EE3425E33AEF4EE85CE30E942C364B015C016093F3047093A9
:2023E000F4048093F5049093F6040E94503420E030E044EB52E40E942C3626E636E646E6C9
:202400005FE30E942C3620E030E040EF52E40E94D1330E94BB347093150160931401C501E3
:20242000B4010E948F3620E030E044EB52E40E942C3626E636E646E65FE30E942C3620E06D
:2024400030E043E453E40E94D1330E94BB3470931301609312012091F9043091FA0480913C
:202460000C0190910D010091F7041091F8042817390739F480910A0190910B0108171907C3
:2024800041F043EC50E068E770E080E090E00E94CE042091FD043091FE0480911001909111
:2024A00011010091FB041091FC042817390739F480910E0190910F010817190741F043EC3D
:2024C00050E068E770E080E090E00E94CE040091FF0410910005209101053091020543EC01
:2024E00050E068E770E080E090E00E94CE0400910A0110910B0120910C0130910D0143ECC4
:2025000050E068E770E080E098EF0E94CE0480910C0190910D019093FA048093F904809102
:202520000A0190910B019093F8048093F70400910E0110910F01209110013091110143EC21
:2025400050E068E770E080E098EF0E94CE0480911001909111019093FE048093FD048091B2
:202560000E0190910F019093FC048093FB040091120110911301209114013091150143ECC1
:2025800050E068E770E08FEF97E00E94CE0480911401909115019093020580930105809152
:2025A000120190911301909300058093FF040E947527CB9729F40E947D27CB9709F441C032
:2025C0000E947D27019721F00E947D274F9799F481E08093DF040091D9041091DA041016E9
:2025E00011064CF46090D7047090D804C3010197833B910548F10E947D2790930701809370
:20260000060164C005E410E025E930E040E050E060E070E080E090E00E9428090E948D27BF
:20262000FC01EE0FFF1FEC5EFE4F608171818DEE94E00E945E32B60187EE94E00E945E3225
:2026400060CD1092E004BCCF0A351105A4F680900801909009016091D3047091D4048827BA
:2026600077FD8095982F0E94EE345B016C01B301882777FD8095982F0E94EE342B013C019D
:202680006091D5047091D604882777FD8095982F0E94EE349B01AC01B801882777FD809598
:2026A000982F2DA33EA34FA358A70E94EE34830172012DA13EA14FA158A50E9436090E94D9
:2026C0006D270E940A050E944A0C95CFA8960FB6F894DEBF0FBECDBFDF91CF911F910F91B4
:2026E000FF90EF90DF90CF90BF90AF909F908F907F906F905F904F9008952F923F924F9236
:202700005F926F927F928F929F92AF92BF92CF92DF92EF92FF920F931F93CF93DF9300D0F6
:2027200000D0CDB7DEB74C017C836B836A015901C8018701AC014C195D0957FF03C05195E9
:202740004195510995016B817C81261B370B37FF03C031952195310922242394312C241703
:20276000350714F0212C312C2114310459F03A2D2B2D5C01832F922F3B812C81DC82CB8219
:20278000C32ED22EAB81BC81AA16BB065CF43C2D2D2D6C01832F922F3B812C81BC82AB8297
:2027A000A32EB22E2501EB81FC814E1A5F0A3C016C187D0877FE03C0719461947108720124
:2027C00057FE03C0FFEFEF1AFF0AF594E794C816D9062CF421E030E03A83298324C06FEF44
:2027E0007FEF7A8369831FC0D401ED91FC910480F581E02D980121143104D9F04B815C8147
:20280000B601C4010995E618F708F7FE06C0E981FA81CE0EDF1EE40CF51C2B813C812F5F30
:202820003F4F3C832B836B817C81A616B706E4F604C0A6016B817C81E4CF0F900F900F907D
:202840000F90DF91CF911F910F91FF90EF90DF90CF90BF90AF909F908F907F906F905F9004
:202860004F903F902F9008956F927F928F929F92AF92BF92CF92DF92EF92FF920F931F9320
:20288000CF93DF93EC015B016A0139014801E881F9810284F385E02D87010995E881F98136
:2028A000A601480D591D415051090284F385E02D9301B501CE010995E881F9810084F1851C
:2028C000E02D9401A601B501CE010995E881F981B501660D771D615071090084F185E02DBA
:2028E0009401A601CE010995DF91CF911F910F91FF90EF90DF90CF90BF90AF909F908F9057
:202900007F906F900895EF92FF920F931F93DC01ED91FC91240F351F215031090680F7818E
:20292000E02D780189019B0109951F910F91FF90EF900895EF92FF920F931F93DC01ED9191
:20294000FC91260F371F215031090680F781E02D78018A0109951F910F91FF90EF9008950C
:202960006F927F928F929F92AF92BF92CF92DF92EF92FF920F931F93CF93DF935C014A01AD
:2029800069013801EB01C60ED71ECC15DD0574F4D501ED91FC910084F185E02D87019301B0
:2029A000A401BE01C50109952196EFCFDF91CF911F910F91FF90EF90DF90CF90BF90AF9050
:2029C0009F908F907F906F900895EF92FF920F931F93DC01ED91FC9111971A960D911C910D
:2029E0001B9718962D913C9119970684F785E02D7B0140E050E060E070E009951F910F91DF
:202A0000FF90EF9008950895FC011382128289E494E09183808375836483578346837187D6
:202A2000608753874287158A158614861786168621E0248B8FEF9FEF938B828B918B808BF1
:202A4000268B178A118E108E08952F923F924F925F926F927F928F929F92AF92BF92CF928F
:202A6000DF92EF92FF920F931F93CF93DF9300D000D000D0CDB7DEB79E838D836B015A012A
:202A8000790166246394712C621A730A44245524421A530A440C551CDC01ED91FC91420F11
:202AA000531F0480F581E02D98010995AD81BE81ED91FC911197A5014E195F090480F581D7
:202AC000E02D9801B601CD010995AD81BE81ED91FC911197B6016E0D7F1D0480F581E02D38
:202AE0009801A501CD010995AD81BE81ED91FC911197B6016E197F090480F581E02D9801A5
:202B0000A501CD010995812C912C8E149F040CF0A1C077FC08C0B1E0EB1AF108E2E04E0EAF
:202B2000511C640C751CFFEF8F1A9F0AC401880F991F0196680E791EC4018C0D9D1D9C83F8
:202B40008B83AD81BE81ED91FC9111970480F581E02D980115012E0C3F1CA101BC01CD01CF
:202B60000995F601E819F909FA83E983AD81BE81ED91FC9111970480F581E02D9801A10172
:202B800069817A81CD010995AD81BE81ED91FC9111970480F581E02D980115012E183F0881
:202BA000A1016B817C81CD010995AD81BE81ED91FC9111970480F581E02D9801A1016981D2
:202BC0007A81CD01099514012A0C3B1CAD81BE81ED91FC9111970480F581E02D9801A1018A
:202BE000C6018E0D9F1D9C838B83BC01CD010995AD81BE81ED91FC9111970480F581E02D3A
:202C00009801A101C6018E199F099A838983BC01CD010995150128183908AD81BE81ED918F
:202C2000FC9111970480F581E02D9801A1016B817C81CD010995AD81BE81ED91FC911197A8
:202C40000480F581E02D9801A10169817A81CD0109955BCF26960FB6F894DEBF0FBECDBFB4
:202C6000DF91CF911F910F91FF90EF90DF90CF90BF90AF909F908F907F906F905F904F90A0
:202C80003F902F9008952F923F924F925F926F927F928F929F92AF92BF92CF92DF92EF925C
:202CA000FF920F931F93CF93DF93CDB7DEB728970FB6F894DEBF0FBECDBF5C011B015A83E6
:202CC000498338872F83FC82EB8288248394912C821A930A3901719461947108660C771C61
:202CE000270123E0420E511CEE24E394F12C302F31703D8302700E83C7010197EF81F88536
:202D00008E179F070CF07BC097FC0AC08F819885019798878F8392E0690E711C860C971C23
:202D2000C201AB81BC818A1B9B0B880E991EBD81BB2369F1D501ED91FC912F813885220FDA
:202D4000331F2F5F3F4F8B819C81280F391F0084F185E02D860149815A81AF81B8854A1B48
:202D60005B0BB701620D731DC5010995D501ED91FC910084F185E02D920149815A814E194B
:202D80005F096F817885620D731DC5010995BE81BB2371F1D501ED91FC912F813885220F7D
:202DA000331F2F5F3F4F8B819C81280F391F0084F185E02D860149815A81AF81B8854A1BE8
:202DC0005B0BB1016E197F09C5010995D501ED91FC910084F185E02D920149815A814E19E1
:202DE0005F09B1018F819885681B790BC50109959FEFE91AF90AA2E04A0E511C7DCF28963C
:202E00000FB6F894DEBF0FBECDBFDF91CF911F910F91FF90EF90DF90CF90BF90AF909F90B2
:202E20008F907F906F905F904F903F902F9008956F927F928F929F92AF92BF92CF92DF92A4
:202E4000EF92FF920F931F93CF93DF93EC014B013A0159016801E881F981220F331F2F5F0D
:202E60003F4F4A195B090084F185E02D0995E12CF12C03E09501A301B401CE010E94431692
:202E8000DF91CF911F910F91FF90EF90DF90CF90BF90AF909F908F907F906F9008952F92EE
:202EA0003F924F925F926F927F928F929F92AF92BF92CF92DF92EF92FF920F931F93CF93DF
:202EC000DF93CDB7DEB76A970FB6F894DEBF0FBECDBF1C0158874F831C870B87FA86E9862D
:202EE000CC82DC0158964D915C9159974115510509F0A6C018968D919C911997681779074B
:202F00000CF056C11A968D919C911B97EF81F885E817F9070CF04CC1D12CCB013C81F6E0A0
:202F20003F9F800D911D1124181619060CF040C1C60103E0880F991F0A95E1F74F815885DC
:202F4000840F951F181619060CF032C157968C91811103C0203B08F02F5F7E876D874B0169
:202F600019821CEFA12E10E0B12EA61AB70A55E0259FA00CB11C11248981853039F0ED858B
:202F8000FE85EA0DFB1D94919A8301C01A826F8078842301A8E0AD83BA81B0FF12C0D101AB
:202FA000ED91FC91BC81B13031F40480F581E02D2B853C8518C00684F785E02DEB84FC8471
:202FC0001DC0E985FA852B853C85E217F307E1F0D101ED91FC91BC81B13059F40480F581B0
:202FE000E02D29853A85A2016D857E85C10109950BC00684F785E02DE984FA848601960178
:20300000A301B401C1010995EA81E695EA83FD81F150FD836C0C7D1C2FEF421A520AF1117C
:20302000BBCF39813F5F39838C0C9D1C4D855E854F5F5F4F5E874D87363009F09DCFB8C094
:20304000FA0134963491329785919491231BA7E02A9F800D911D1124FA0125913491398BAA
:20306000288BFC01459154915A8F498FFC013296549159873196A491AF873196E491FC012F
:203080003596249131968491BC81B23050F0622E772467FC7094E82FFF27E7FDF095FE87B8
:2030A000ED87FC81CF2ED12C6C9C40016D9C900C7C9C900C1124860E971EA12C1982DE8A35
:2030C000CD8AAB01420F511D27FD5A955E834D83AF81B885A80FB11D87FDBA95B88FAF8B24
:2030E00059818F85581708F063C0852F90E02D853E85280F391F2C9DD0012D9DB00D3C9D36
:20310000B00D1124EF81F885EA0FFB1FFB83EA836D807E802401FA2D2D81F21BFA8B4F8983
:20312000588D480F591F5C8B4B8B9A89960D862D2D81821B39858317B0F5977061F4898DEB
:203140009A8D0196E889F989298D3A8DE20FF31FB4909A8F898FB7FE1DC0D101ED91FC914A
:20316000BC81B13059F40480F581E02D2B853C854B895C89B301C10109950CC00684F785CD
:20318000E02DEB84FC84860196014A815B81B201C1010995BB0CED89FE894E0E5F1EFFEFD0
:2031A0006F1A7F0AC2CFA30E49814F5F498398CF6A960FB6F894DEBF0FBECDBFDF91CF91F9
:2031C0001F910F91FF90EF90DF90CF90BF90AF909F908F907F906F905F904F903F902F907D
:2031E0000895AF92BF92CF92EF92FF920F931F93CF93DF93EC01262F888D998D009709F0F8
:2032000042C06A3069F42C898E859F8538E0239F800D911D11249F878E871D861C86ABC094
:203220006D3009F4A8C08E898823C1F03C898C859D8546E0349F800D911D1124488559850D
:20324000841795075CF01D861C868E859F85E8E03E9F800D911D11249F878E87EA88FB882A
:20326000088919894E855F856C857D85CC88CE010E944F172C898C859D85F6E02F9F800D2D
:20328000911D112441C06A3079F41D861C864C89FC01369684912E853F85489F200D311D72
:2032A00011243F872E8767C06D3009F464C0AC014C5F5F4FFA013491631708F45CC031965A
:2032C000E491E61708F457C0FA014491362F341BFC013296A590B490F7E03F9FA00CB11C79
:2032E0001124F5013296A4913196E491AA2311F0E1110DC0F5013496A4902C898C859D8501
:20330000A29E800D911D11249D878C8734C0F5013596E4913E89332309F13C89B0E0AE0F73
:20332000B11DE7FDBA953A9FA0013B9F500D11246C857D85460F571F688579854617570742
:203340006CF01D861C86FC01369684914E855F85389F400D511D11245F874E87EA88FB88C0
:20336000088919894E855F856C857D85CC88CE010E944F17BFCF81E090E0DF91CF911F9166
:203380000F91FF90EF90CF90BF90AF900895FC0175876487578746870895611101C061E055
:2033A000FC01648B0895FC01738B628B718B608B0895FC016370658B8481958126813781DE
:2033C000613039F0633029F09187808733872287089531872087938782870895CF93DF9375
:2033E000EC01EB8DFC8D80819BA1892B8083EF8DF8A180819DA1892B8083E9A1FAA18081BA
:203400009EA1892B80838BA5882369F060E00E94D52E62E070E080E090E00E94F32D61E038
:203420008BA50E94D52EEB8DFC8D80819FA189238083ED8DFE8D808198A5892380838BB198
:2034400083708BB985B18C7F85B9EF8DF8A1808199A589238083EF8DF8A180819DA1892BAB
:20346000808383E0EF8DF8A1908129A592239083EF8DF8A190812DA1922B9083815091F70D
:20348000EB8DFC8D80819BA1892B8083DF91CF910895DF92EF92FF920F931F93CF93DF931F
:2034A000FC01CB01A38DB48D6C9177A167236C93A58DB68D6C9170A567236C93628D6230A3
:2034C000B9F0611113C06BB163706BB965B16C7F65B9A78DB0A16C9171A567236C93A78D77
:2034E000B0A16C9175A1672B6C9309C0633039F46BB163706C626BB965B16C7F07C06BB189
:20350000637060626BB965B16C7F626065B9A78DB0A16C9171A567236C93A78DB0A16C916E
:2035200075A1672B6C93A58DB68D6C9174A1672B6C936BB1C92FCC7F63706C2B6BB965B1C9
:20354000D92FD3706C7F6D2B65B9A78DB0A16C9171A567236C93A78DB0A16C9175A1672B34
:203560006C936BB1782F7C7FF72E6370672B6BB965B1782F7370E72E6C7F672B65B9A78D5C
:20358000B0A16C9171A567236C93A78DB0A16C9175A1672B6C93BA01A9014150510961095B
:2035A00071098A019B0156E036952795179507955A95D1F7981719F080E090E03AC180E0CB
:2035C00090E00817190709F466C020E1A78DB0A13C91C1A53C233C93A78DB0A13C91C5A17A
:2035E0003C2B3C93A78DB0A13C91C1A53C233C93A78DB0A13C91C5A13C2B3C93A78DB0A13C
:203600003C91C1A53C233C93A78DB0A13C91C5A13C2B3C93A78DB0A13C91C1A53C233C9375
:20362000A78DB0A13C91C5A13C2B3C93A78DB0A13C91C1A53C233C93A78DB0A13C91C5A1FE
:203640003C2B3C93A78DB0A13C91C1A53C233C93A78DB0A13C91C5A13C2B3C93A78DB0A1DB
:203660003C91C1A53C233C93A78DB0A13C91C5A13C2B3C93A78DB0A13C91C1A53C233C9315
:20368000A78DB0A13C91C5A13C2B3C93215009F09DCF019696CF4F734150C8F0A78DB0A1DA
:2036A0008C9191A589238C93A78DB0A18C9195A1892B8C93A78DB0A18C9191A589238C939E
:2036C000A78DB0A18C9195A1892B8C93E5CFA38DB48D8C9193A1892B8C93DF91CF911F9176
:2036E0000F91FF90EF90DF9008953BB133703C2B3BB935B13C7F3D2B35B9A78DB0A13C91DD
:20370000D1A43D213C93A78DB0A13C91D5A03D293C933BB133703F293BB935B13C7F3E2918
:2037200035B9A78DB0A13C91D1A43D213C93A78DB0A13C91D5A03D293C933BB133703C2BB5
:203740003BB935B13C7F3D2B35B9A78DB0A13C91D1A43D213C93A78DB0A13C91D5A03D295D
:203760003C933BB133703F293BB935B13C7F3E2935B9A78DB0A13C91D1A43D213C93A78D71
:20378000B0A13C91D5A03D293C933BB133703C2B3BB935B13C7F3D2B35B9A78DB0A13C912E
:2037A000D1A43D213C93A78DB0A13C91D5A03D293C933BB133703F293BB935B13C7F3E2978
:2037C00035B9A78DB0A13C91D1A43D213C93A78DB0A13C91D5A03D293C933BB133703C2B15
:2037E0003BB935B13C7F3D2B35B9A78DB0A13C91D1A43D213C93A78DB0A13C91D5A03D29BD
:203800003C933BB133703F293BB935B13C7F3E2935B9A78DB0A13C91D1A43D213C93A78DD0
:20382000B0A13C91D5A03D293C93215009F05DCF01960817190711F020E157CF4F734150D9
:2038400008F445CF8BB183708C2B8BB985B18C7F8D2B85B9A78DB0A18C9191A589238C9354
:20386000A78DB0A18C9195A1892B8C938BB183708F298BB985B18C7F8E2985B9A78DB0A1B7
:203880008C9191A589238C93A78DB0A18C9195A1892B8C93D4CF8AB18C6F8AB984B183602B
:2038A00084B90895CF93DF93EC010E944B1C1D8A1D861C861F861E8681E08C8B8FEF9FEFAB
:2038C000998B888B80EF90E09987888780E491E09B878A87DF91CF9108959F92AF92BF926B
:2038E000CF92DF92EF92FF920F931F93CF93DF93EC01A62EF42EB22E902E40E451E060EF97
:2039000070E00E94041586E794E099838883EBA66A2D70E0FB01E457F84FE491F0E0EE0F5C
:20392000FF1FE056F84FA591B491BC8FAB8F4F2D50E0FA01E457F84FE491F0E0EE0FFF1F63
:20394000E056F84F859194919E8F8D8F2B2D30E0F901E457F84FE491F0E0EE0FFF1FE056EC
:20396000F84F8591949198A38F8F092D10E0F801E457F84FE491F0E0EE0FFF1FE056F84FEE
:20398000C590D490DAA2C9A2FB01E858F84F64916BA3FA01E858F84F44914CA3F901E85881
:2039A000F84F24912DA3F801E858F84F04910EA39BA1892F80958FA38CA1809588A78DA19B
:2039C000809589A700950AA78C91892B8C93ED8DFE8D80819CA1892B8083EF8DF8A180815C
:2039E0009DA1892B8083E9A1FAA180819EA1892B808361E08A2D0E949C2E61E08F2D0E94B3
:203A00009C2E61E08B2D0E949C2E61E0892D0E949C2EEE2041F061E08E2D0E94D52E61E0F3
:203A20008E2D0E949C2ECE01DF91CF911F910F91FF90EF90DF90CF90BF90AF909F900C9437
:203A4000521CFC01A58DB68D8C9190A589238C939BB1862F8C7F9370892B8BB985B1637059
:203A60008C7F682B65B9A78DB0A18C9191A589238C93A78DB0A18C9195A1892B8C93A58D0A
:203A8000B68D8C9194A1892B8C939BB1842F8C7F9370892B8BB985B143708C7F482B45B954
:203AA000A78DB0A18C9191A589238C93A78DB0A18C9195A1892B8C930895FC01A58DB68DA9
:203AC0008C9190A589238C939BB1872F8C7F9370892B8BB985B173708C7F782B75B9A78D98
:203AE000B0A18C9191A589238C93A78DB0A18C9195A1892B8C939BB1862F8C7F9370892BE9
:203B00008BB985B163708C7F682B65B9A78DB0A18C9191A589238C93A78DB0A18C9195A121
:203B2000892B8C93A58DB68D8C9194A1892B8C939BB1852F8C7F9370892B8BB985B1537019
:203B40008C7F582B55B9A78DB0A18C9191A589238C93A78DB0A18C9195A1892B8C939BB12F
:203B6000842F8C7F9370892B8BB985B143708C7F482B45B9A78DB0A18C9191A589238C9384
:203B8000A78DB0A18C9195A1892B8C930895FC01A58DB68D8C9190A589238C939BB1862F4D
:203BA0008C7F9370892B8BB985B163708C7F682B65B9A78DB0A18C9191A589238C93A78D63
:203BC000B0A18C9195A1892B8C93A58DB68D8C9194A1892B8C939BB1832F8C7F9370892B14
:203BE0008BB985B133708C7F382B35B9A78DB0A18C9191A589238C93A78DB0A18C9195A1D1
:203C0000892B8C93A58DB68D8C9190A589238C939BB1842F8C7F9370892B8BB985B1437051
:203C20008C7F482B45B9A78DB0A18C9191A589238C93A78DB0A18C9195A1892B8C93A58D88
:203C4000B68D8C9194A1892B8C939BB1822F8C7F9370892B8BB985B123708C7F282B25B9F4
:203C6000A78DB0A18C9191A589238C93A78DB0A18C9195A1892B8C930895CF93DF93EC0198
:203C8000EB8DFC8D80819FA189238083288539852150310945E064E0CE010E94C71D2A85B0
:203CA0003B852150310949E068E0CE010E94C71DEB8DFC8D80819BA1892B8083DF91CF910E
:203CC00008950F931F93CF93DF9300D000D0CDB7DEB78C01DC015B96ED91FC915C9780810C
:203CE00097969C919797892380835D96ED91FC915E97808198969C919897892380839BB114
:203D0000862F8C7F9370892B8BB985B163708C7F682B65B95F96ED91FC91909780819996CC
:203D20009C919997892380835F96ED91FC919097808195969C919597892B80835D96ED91A3
:203D4000FC915E97808194969C91892B80838AE090E029833A834B835C830E942D2E7BB1B9
:203D600029813A814B815C81852F9927AA27BB27682F6C7F7370672B6BB965B183706C7FFF
:203D8000862B85B9D8015F96ED91FC919097808199969C919997892380835F96ED91FC91F8
:203DA0009097808195969C91892B80838AE090E029833A834B835C830E942D2E7BB1298109
:203DC0003A814B815C81CA01AA27BB27682F6C7F7370672B6BB965B183706C7F862B85B903
:203DE000D8015F96ED91FC919097808199969C919997892380835F96ED91FC91909780815F
:203E000095969C91892B80838AE090E029833A834B835C830E942D2EFBB129813A814B81C9
:203E20005C81BB27A52F942F832FE82FEC7FF370EF2BEBB9E5B1682F6370EC7F6E2B65B9B5
:203E4000D8015F96ED91FC919097808199969C919997892380835F96ED91FC9190978081FE
:203E600095969C91892B80838AE090E029833A834B835C830E942D2E9BB12981822F8C7F94
:203E80009370892B8BB985B123708C7F282B25B9D8015F96ED91FC919097808199969C91C5
:203EA0009997892380835F96ED91FC919097808195969C919597892B80835B96ED91FC91C4
:203EC0005C97808193969C91892B80830F900F900F900F90DF91CF911F910F9108958F9287
:203EE0009F92AF92BF92CF92DF92EF92FF920F931F93CF93DF93EC017A016901EB8DFC8D20
:203F000080819FA1892380838A8D81115EC08D89823089F0833021F1813081F58FEE90E0D0
:203F20009C01201B310B5B014C01841A950A860164017B0113C08FEE90E09C012C193D0937
:203F40006C01C61AD70A8FE391E0AC01401B510B8C010E191F09580146017A01B90110C06B
:203F60008FE391E09C012C193D095C01A61AB70A4A0168018501B701790102C05A014B0183
:203F8000AB0160E570E0CE010E945D1DA60161E570E0CE010E945D1DA70162E570E0CE01BF
:203FA0000E945D1DA80163E570E0CE010E945D1DA40160E270E0CE010E945D1DA50161E2AE
:203FC00070E0CE010E945D1D48C08130C9F49B0143E062E0CE010E94C71D970147E066E0D5
:203FE000CE010E94C71D960145E064E0CE010E94C71D980149E068E0CE010E94C71D2DC0CB
:204000008250823050F5CB01AA2797FDA095BA2FAC0133272227C601AA2797FDA095BA2FEE
:20402000282B392B4A2B5B2B6AE2CE010E94611EC701AA2797FDA095BA2FAC0133272227F7
:20404000C801AA2797FDA095BA2F282B392B4A2B5B2B6BE2CE010E94611EEB8DFC8D808123
:204060009BA1892B8083DF91CF911F910F91FF90EF90DF90CF90BF90AF909F908F900895D8
:20408000CF92DF92EF92FF920F931F93CF93DF93EC0169017801121613060CF04FC057FDA4
:2040A0004DC08A859B85481759070CF047C088859985681779070CF041C0FB01E20FF31FDC
:2040C0009F012150310937FD39C077FF03C06F0160E070E02817390734F09C012150310944
:2040E0006C01C61AD70A8A01CE010E946F1F9601442737FD4095542FB701CE010E94491AEE
:204100008A8D811110C00A851B8501501109288539852150310940E050E060E070E0CE01C7
:204120000E946F1F0BC0CE01DF91CF911F910F91FF90EF90DF90CF900C943D1EDF91CF91EE
:204140001F910F91FF90EF90DF90CF900895CF92DF92EF92FF920F931F93CF93DF93EC019D
:2041600069017801121613060CF04FC077FD4DC088859985681779070CF047C08A859B8533
:20418000481759070CF041C09A012C0D3D1D89010150110917FD39C057FF03C0690140E090
:2041A00050E00817190734F08C01015011096C01C41AD50A9B01CE010E946F1F96014427AD
:2041C00037FD4095542FB701CE010E94491A8A8D811110C00A851B85015011092885398549
:2041E0002150310940E050E060E070E0CE010E946F1F0BC0CE01DF91CF911F910F91FF90EC
:20420000EF90DF90CF900C943D1EDF91CF911F910F91FF90EF90DF90CF9008958F929F926B
:20422000AF92BF92CF92DF92EF92FF920F931F93CF93DF93EC0159016801470112161306A7
:204240000CF06BC0101611060CF067C088859985681779070CF061C0EA84FB844E155F05DC
:204260000CF05BC0FB01E20FF31F9F012150310937FD53C0DA01A00FB11F8D010150110943
:2042800017FD4BC077FF03C05F0160E070E057FF03C06D0140E050E02817390734F09C01BF
:2042A000215031095C01A61AB70A0E151F0534F08701015011096701C41AD50ACE010E9481
:2042C0006F1F9601D5010E944F379B01AC01B401CE010E94491A8A8D811110C00A851B8541
:2042E00001501109288539852150310940E050E060E070E0CE010E946F1F0FC0CE01DF9150
:20430000CF911F910F91FF90EF90DF90CF90BF90AF909F908F900C943D1EDF91CF911F91BA
:204320000F91FF90EF90DF90CF90BF90AF909F908F900895EF92FF920F931F93CF93DF934E
:20434000EC017B018A8D811127C0ED89E150E33068F4F0E0DF01A159BB4F4C9150E0EE0F90
:20436000FF1FE759FB4F0081118104C000E010E040E050E0EB8DFC8D80819FA189238083AD
:2043800060E270E0CE010E945D1DA80161E270E0CE010E945D1D12C08150833078F40A8528
:2043A0001B8501501109288539852150310940E050E060E070E0CE010E946F1F20E03CE2DF
:2043C00041E050E0B701CE01DF91CF911F910F91FF90EF900C94491AAF92BF92CF92DF9270
:2043E000EF92FF920F931F93CF93DF93EC016B017A01B22EA32E77FDE0C057FDDEC08885EB
:204400009985681779070CF0D8C08A859B85481759070CF0D2C0EB8DFC8D80819FA1892381
:2044200080838A8D811135C08D89823059F08330B1F08130D1F48FEE90E0841B950B7B0158
:204440006C0113C08FEE90E09C01261B370B69018FE391E09C01241B350B790106C08FE3F4
:2044600091E0861B970B6A017C01A60160E270E0CE010E945D1DA70161E270E0CE010E94D0
:204480005D1D4B2D5A2D62E270E0CE010E945D1D8EC0813041F5ED89E150E33028F4F0E049
:2044A000EA59FB4F408101C040E066E1CE010E94211D960143E062E0CE010E94C71D9701EE
:2044C00047E066E0CE010E94C71DED8DFE8D808198A5892380838BB1837080628BB985B19D
:2044E0008C7F826021C08250823008F060C00A851B85015011092885398521503109CE01D3
:204500000E946F1FEB8DFC8D80819FA189238083ED8DFE8D808198A5892380838BB1837059
:204520008C628BB985B18C7F85B9EF8DF8A1808199A589238083EF8DF8A180819DA1892BBF
:204540008083ED8DFE8D80819CA1892B80839BB18A2D8C7F9370892B8BB995B18A2D837065
:204560009C7F892B85B9EF8DF8A1808199A589238083EF8DF8A180819DA1892B80839BB1D4
:204580008B2D8C7F9370892B8BB995B18B2D83709C7F892B85B9EF8DF8A1808199A589235F
:2045A0008083EF8DF8A180819DA1892B8083EB8DFC8D80819BA1892B8083DF91CF911F9178
:2045C0000F91FF90EF90DF90CF90BF90AF900895EF92FF920F931F93CF93DF93EC010E946B
:2045E000D919EB8DFC8D80819FA1892380838A8D811122C0ED89E150E33040F4F0E0EE0F92
:20460000FF1FE05AFB4F4081518102C040E350E163E070E0CE010E945D1D0A851B85015051
:204620001109288539852150310940E050E060E070E0CE010E946F1F8A8D813089F4ED89B0
:20464000E150E33028F4F0E0E35AFB4F408101C040E066E1CE010E94211DCE010E943D1E3F
:204660008A8D823039F58D89813059F038F0823059F0833059F408E2E02E08C018E8E12E41
:2046800005C0B8EEEB2E02C0A8E4EA2E4E2D66E3CE010E94211D0A851B8501501109288576
:2046A00039852150310940E050E060E070E0CE010E946F1F8A8D833031F58D89813059F0B2
:2046C00038F0823059F0833051F4F0E6FF2E07C0E0ECFE2E04C070EAF72E01C0F12C4F2D60
:2046E00066E3CE010E94211D0A851B8501501109288539852150310940E050E060E070E032
:20470000CE010E946F1FDF91CF911F910F91FF90EF9008950F931F93CF93DF93EC018B012E
:204720000E94EE1968EC70E080E090E00E94F32D053283E9180721F00832E3E91E0741F566
:204740001A8EEB8DFC8D80819FA1892380830CEF15E0F80185919491F80132964591549120
:204760008F3F910531F4BA0180E090E00E94F32D04C0BC01CE010E945D1D0C5F1F4FF6E048
:20478000083C1F0731F76D89CE010E94E8225FC0013483E9180709F066C082E08A8FEB8D25
:2047A000FC8D80819FA18923808340E061E0CE010E94211D62E370E080E090E00E94F32D49
:2047C00040E068E2CE010E94211D43E260ECCE010E94211D40E161ECCE010E94211D4BE256
:2047E0005BE265EC70E0CE010E945D1D40EC67ECCE010E94211D48E866E3CE010E94211D9A
:2048000045E56AE3CE010E94211D4BE150E061EB70E0CE010E945D1D47E067EBCE010E94A5
:20482000211D40E061E1CE010E94211D66E970E080E090E00E94F32D40E069E2CE010E941C
:20484000211D64EF71E080E090E00E94F32D0FE311E02FEE30E040E050E060E070E0CE0125
:204860000E946F1FADC00735E3E81E0709F077C083E08A8FEB8DFC8D80819FA189238083D2
:2048800080E0E82FF0E0E853F94F949112E0180F61E0680FE62FF0E0E853F94F64919F3F1D
:2048A00031F470E080E090E00E94F32D54C0AB8DBC8D2C913FA123232C93AD8DBE8D2C9178
:2048C00038A523232C933BB1292F2C7F3370232B2BB925B193702C7F922B95B9EF8DF8A18E
:2048E000908129A592239083EF8DF8A190812DA1922B9083ED8DFE8D90812CA1922B90839A
:20490000860F8E5FE12FE817F9F031E03E0FF0E0E853F94FE4912BB19E2F9C7F2370922BE3
:204920009BB995B1E3709C7FE92BE5B9EF8DF8A1908129A592239083EF8DF8A190812DA10D
:20494000922B9083E32FDFCF160FEB8DFC8D80819BA1892B8083163498F5812F92CF053789
:20496000154761F581E08A8FEB8DFC8D80819FA1892380830EE017E0F8018491319644918B
:204980008F3F39F4642F70E080E090E00E94F32D04C0682FCE010E94211D0E5F1F4FF7E0EB
:2049A00004361F0749F76D89CE010E94E822CE01DF91CF911F910F910C943D1E8FEF8A8F65
:2049C000DF91CF911F910F9108956F927F928F929F92AF92BF92CF92DF92EF92FF920F939E
:2049E0001F93CF93DF93EA012CE3C22ED12CE12CF12CA70196010E9427376883CA01B90171
:204A0000A70196010E9427376983CA01B90128E130E040E050E00E94273749015A016A83EB
:204A2000CA01B9016C5F7F4F8F4F9F4F27E030E040E050E00E9427376F5F6B8300E010E099
:204A4000980140E054E6652E712C60E9C62EDD24D394E42FF0E0EE54F84F7F0183E0E82235
:204A6000FF24E114F10489F4CF01B3010E941337892B29F08EE691E0A0E0B0E00AC0CF01E0
:204A8000B6010E941337892BA9F38DE691E0A0E0B0E0080F191F2A1F3B1FD901C801AA27C9
:204AA000BB2788169906AA06BB0610F04F5FD1CF4E83E114F10499F4CF0164E670E00E94C4
:204AC0001337892B29F08EE691E0A0E0B0E00BC0CF0160E971E00E941337892BA1F38DE6EE
:204AE00091E0A0E0B0E0081B190B2A0B3B0B801A910AA20AB30ACF0164E670E00E9413377F
:204B00009C01CF0160E971E00E941337EAE8F4E0A0E0A13059F4E114F10451F421153105C3
:204B200011F04DE106C00097E1F302C0408101C04CE150E060E070E084169506A606B70646
:204B400040F0841A950AA60AB70AAF5F3196AC3001F7AF5FAD8383948C82DF91CF911F91EB
:204B60000F91FF90EF90DF90CF90BF90AF909F908F907F906F900895CF92DF92EF92FF924E
:204B80006B017C018091770590917805A0917905B0917A05C816D906EA06FB0671F04BE751
:204BA00055E0C701B6010E94E524C0927705D0927805E0927905F0927A05FF90EF90DF907B
:204BC000CF9008950E94BC2580917E0590E008950E94BC258091810590E08E54984F0895C5
:204BE0006F927F928F929F92AF92BF92CF92DF92EF92FF920F931F93CF93DF93FC01C68070
:204C0000AC2DB0E020E833E341EE51E00E946D374B015C0122EB37E06D01C4E6D0E000E9E9
:204C200011E0C901825B97408C159D05DCF4C90183709927892B99F4C901BE010E941337BF
:204C4000892B31F4C901B8010E941337892B39F480E8880E81E5981E81E0A81EB11C2F5F8F
:204C60003F4FDFCF6580712C8EE4C81A88EFD80AC60164E670E00E9413378C01C60160E9DF
:204C800071E00E9413377C01C1E0D0E083E0C822DD24C615D7052CF5C230D10589F4C114C9
:204CA000D10471F40115110519F4E114F10441F480E8880E8BE3981E86E2A81EB11C0FC076
:204CC000DE01A757BB4FAC91B0E020E831E541E050E00E946D37860E971EA81EB91E2196CE
:204CE000D8CF4181228130E0A0E1BEE00E9457376B017C01242F30E0ACE3B0E00E945737AE
:204D0000C60ED71EE81EF91E8081C80ED11CE11CF11CA481B0E0119720E831E541E050E013
:204D20000E947837C60ED71EE81EF91EC80CD91CEA1CFB1CC701B601DF91CF911F910F91B7
:204D4000FF90EF90DF90CF90BF90AF909F908F907F906F9008950F931F936093730570932E
:204D60007405809375059093760500913C0110913D0120913E0130913F01060F171F281F5F
:204D8000391F00936B0510936C0520936D0530936E0582E090E090936A05809369050E94C2
:204DA000C42D60936F057093700580937105909372051F910F910895CF92DF92EF92FF922F
:204DC0000F931F930E94C42DC0906F05D0907005E0907105F09072056C197D098E099F092C
:204DE00000917305109174052091750530917605683E734081059105D8F00F5F1F4F2F4F92
:204E00003F4F0093730510937405209375053093760548EEC40E43E0D41EE11CF11CC092F9
:204E20006F05D0927005E0927105F0927205CACF80916B0590916C05A0916D05B0916E0543
:204E4000081719072A073B07C8F1E0916705F0916805309799F10995611571058105910525
:204E600019F00E94AB262AC080913C0190913D01A0913E01B0913F0140917305509174058B
:204E80006091750570917605840F951FA61FB71F80936B0590936C05A0936D05B0936E05D7
:204EA00081E090E02091690530916A05232B11F480E090E090936A05809369056091730533
:204EC0007091740580917505909176051F910F91FF90EF90DF90CF9008950E94DC260E9422
:204EE000BC2580917D0590E008950E94DC260E94BC2580917C0590E008950E94DC260E9425
:204F0000BC2580917B0590E008950E94DC260E94BC2580917F0590E008950E94DC260E9403
:204F2000BC2580917E0590E008950E94DC260E94BC258091800590E008950E94DC260C94E1
:204F4000E825EF92FF920F9394E6E916F1042CF092EBE91A97E0F90A03C09EE1E90EF11CC6
:204F6000E09281050093800520937F0580937D0560937C0540937B058BE795E00E94F025F0
:204F80000F91FF90EF900C94AB26CF92DF92EF92FF920F931F93CF93DF93CDB7DEB72C970A
:204FA0000FB6F894DEBF0FBECDBFC982DA82EB82FC820D831E832F83388749875A876B87D3
:204FC0007C872CE0FE013196DC0101900D922A95E1F72CE0FE017796DC011C9601900D9281
:204FE0002A95E1F72C960FB6F894DEBF0FBECDBFDF91CF911F910F91FF90EF90DF90CF9015
:205000000895AF92BF92CF92DF92EF92FF920F931F93CF93DF93CDB7DEB763970FB6F894F1
:20502000DEBF0FBECDBF3F87598B122F211109C04F5F4D3040F02FEFA21AB20A01E041E0A1
:2050400003C0022F01C001E089898B831A82198281E08D834E838EE48A0D8F83CE010196A0
:205060000E94F0256B017C01AF84B12C0E94E225402F50E04150510927E0249FF001259FCE
:20508000F00D11249501281B390BC901079667E070E00E941337E80FF91FDF0120E831E5CA
:2050A00041E050E00E9478376C0D7D1D8E1D9F1D111104C060587A438940910963960FB658
:2050C000F894DEBF0FBECDBFDF91CF911F910F91FF90EF90DF90CF90BF90AF9008958F9206
:2050E0009F92AF92BF92CF92DF92EF92FF920F931F93CF93DF93EC015B01C880D980EA808D
:20510000FB800C811D812E813F81488559856A857B850E94012868A379A38AA39BA3CC8433
:20512000DD84EE84FF84088919892A893B894C895D896E897F89CE010E9401286B017C0132
:205140006CA37DA38EA39FA3AE89BF892CE330E00E94663708A119A12AA13BA1061B170B83
:20516000280B390B088F198F2A8F3B8FAA85BB852CE330E00E946637C61AD70AE80AF90A73
:20518000CC8EDD8EEE8EFF8EDF91CF911F910F91FF90EF90DF90CF90BF90AF909F908F9069
:2051A0000895CF92DF92EF92FF920F931F93CF93DF93EC016A017B01CB01BA010E94E8253C
:2051C0008C01688D798D8A8D9B8D0E94E8250817190741F0C701B6010E94E825BC01CE012F
:2051E0000E946F288C8D9D8DAE8DBF8D488D598D6A8D7B8D481759076A077B0760F4C41612
:20520000D506E606F70690F0C816D906EA06FB0668F481E00CC0C816D906EA06FB06C8F3AA
:2052200081E0C416D506E606F70608F480E0DF91CF911F910F91FF90EF90DF90CF9008957A
:20524000AF92BF92CF92DF92EF92FF920F931F93CF93DF93EC016A017B018901CB01BA01CB
:205260000E94E8255C01688D798D8A8D9B8D0E94E825A816B90641F0C701B6010E94E8255D
:20528000BC01CE010E946F28B701A601CE010E94D128882331F0F801D183C083AA85BB85B5
:2052A00007C0CE010C96F80191838083AE89BF892CE330E00E9466376C0D7D1D8E1D9F1D4F
:2052C000DF91CF911F910F91FF90EF90DF90CF90BF90AF900895CF92DF92EF92FF920F9321
:2052E0001F93CF93DF93EC016A017B01CB01BA010E94E8258C0168A179A18AA19BA10E9465
:20530000E8250817190741F0C701B6010E94E825BC01CE010E946F288CA19DA1AEA1BFA103
:2053200048A159A16AA17BA1481759076A077B0760F4C416D506E606F70690F0C816D90682
:20534000EA06FB0668F481E00CC0C816D906EA06FB06C8F381E0C416D506E606F70608F46F
:2053600080E0DF91CF911F910F91FF90EF90DF90CF9008958F929F92AF92BF92EF92FF923E
:205380000F931F93CF93DF93EC01CB01BA0148015901688379838A839B8325E33AEF4EE855
:2053A0005CE30E942C366C837D838E839F8388869986AA86BB8625E33AEF4EE85CE3C5017E
:2053C000B4010E942C366C877D878E879F87F98AE88ADF91CF911F910F91FF90EF90BF9070
:2053E000AF909F908F900895CF92DF92EF92FF920F931F93DC0153967C936E9352975596A1
:205400005C934E93549757963C932E93569759961C930E9358975B96FC92EE925A975D9656
:20542000DC92CE925C9763707727672B29F093961C921E92929706C081E090E093969C93F0
:205440008E939297425051094B30510508F06CC04C5C5F4FFA010C944937225E3F4F5796B5
:205460003C932E93569756968D919C9157974F9657969C938E93569756968D919C91579756
:205480004E9657969C938E93569756968D919C9157974F9657969C938E93569756968D91C0
:2054A0009C9157974F9657969C938E93569756968D919C9157974E9657969C938E9356978F
:2054C00056968D919C9157974F9657969C938E93569756968D919C9157974E9657969C9373
:2054E0008E93569756968D919C9157974F9657969C938E93569792962D913C919397245E0B
:205500003F4F56968D919C915797820F931F57969C938E93569756968D919C9157974F9661
:2055200057969C938E9356971F910F91FF90EF90DF90CF9008952F923F924F925F926F9213
:205540007F928F929F92AF92BF92CF92DF92EF92FF920F931F93CF93DF93CDB7DEB7689732
:205560000FB6F894DEBF0FBECDBF1C01FC01A08DB18D20E13EE00E946637228D338D4CE363
:20558000429F6001439FD00C1124EE24D7FCE094FE2C6C0D7D1D8E1D9F1DC48CD58CEE2416
:2055A000D7FCE094FE2C6C0D7D1D8E1D9F1D0E94EE3420E030E041E655E40E9453344B0157
:2055C0005C01D1015E966D937D938D939C93919750968D919C9151972FE0289FB001299FB9
:2055E000700D1124882777FD8095982F0E94EE3469837A838B839C83F10164A775A786A7DA
:2056000097A76689778961557109882777FD8095982F0E94EE342FE73AE64CE75FE30E941D
:205620002C36D101D4966D937D938D939C93D79725E33AEF4EE85CE30E942C366B017C016C
:205640009B01AC010E94D1330E948F362B013C01C701B6010E9450346D837E838F839887C4
:20566000C701B6010E948F366B017C0125E83BEE4DE151E4C301B2010E942C362B013C01DE
:2056800023EC35EF40EF50E46D817E818F8198850E942C369B01AC01C301B2010E94D033F1
:2056A0002B013C0120E030E040EC5FE3C701B6010E942C369B01AC01C301B2010E94D0331B
:2056C0002B013C01F10160AB71AB82AB93AB29813A814B815C8160857185828593850E9433
:2056E000D03320E030E040E850E40E942C36A30192010E94D133D101D8966D937D938D93EA
:205700009C93DB9720E030E040E752E40E9453349B01AC01C501B4010E94D1334B015C013F
:20572000F10164AF75AF86AF97AF20E030E040E451E40E94D03320E030E040E751E40E94A9
:205740002C3669837A838B839C83F101E05CFF4F60837183828393832AE939E94BEB51E4C3
:20576000C701B6010E942C36F101EC5BFF4F608371838283938325E33AEF4EE85CE30E94E5
:205780002C369B01AC012D8B3E8B4F8B588F0E948F362B013C01D1011496CD90DD90ED9089
:2057A000FC901797C701B6010E948F366D837E838F8398872D893E894F89588DCA01B901E8
:2057C0000E94503469877A878B879C87C701B6010E9450346D877E878F87988B25E33AEF75
:2057E0004EE85CE369817A818B819C810E942C360E945034698B7A8B8B8B9C8B2D813E8159
:205800004F815885C301B2010E942C366B017C012D853E854F85588969857A858B859C852F
:205820000E942C3629893A894B895C890E942C369B01AC01C701B6010E94D1330E943534B9
:205840006B017C01F101E45BFF4F60837183828393838101085B1F4F21EE3EE245E652E40B
:205860000E942C36F8016083718382839383C701B6010E9450346B017C012D853E854F8562
:205880005889C301B2010E942C362B013C012D813E814F81588569857A858B859C850E9469
:2058A0002C3629893A894B895C890E942C369B01AC01C301B2010E94D033A70196010E940E
:2058C00053340E94C2333101F4E56F0E711CD3016D937D938D939C93139721EE3EE245E65E
:2058E00052E40E942C366B017C0120E030E040E451E4C501B4010E942836085F1F4F18169E
:205900008CF020E030E0A90169817A818B819C810E942836181634F0F801C082D182E282FF
:20592000F38219C0A701960160E070E084EB93E40E94D033D8016D937D938D939C931397DD
:2059400025E33AEF4EE85CE30E942C36F301608371838283938368960FB6F894DEBF0FBEFE
:20596000CDBFDF91CF911F910F91FF90EF90DF90CF90BF90AF909F908F907F906F905F90C6
:205980004F903F902F900895845B9F4FFC01608171818281938108958C5A9F4FFC016081FA
:2059A0007181828193810895CF92DF92EF92FF92CF93DF93EC016C817D818E819F810E94E0
:2059C000D7366B017C01FE01EC5BFF4F25E33AEF4EE85CE360817181828193810E942C36A9
:2059E0000E94D7369B01AC01C701B60190580E942C360E94C2332BE13DEC48E750E40E9473
:205A00002C369B01AC0160E070E080E491E40E94D0336B017C0120E030E040E752E468AD62
:205A200079AD8AAD9BAD0E9453349B01AC01C701B6010E94D03368A779A78AA79BA7DF9119
:205A4000CF91FF90EF90DF90CF900895CF92DF92EF92FF92CF93DF93EC016C817D818E81CE
:205A60009F810E94D7366B017C01FE01EC5BFF4F25E33AEF4EE85CE360817181828193814A
:205A80000E942C360E94D7369B01AC01C701B60190580E942C360E94C2332BE13DEC48E7A4
:205AA00050E40E942C3620E030E040E451E40E94D1336B017C0120E030E040E752E468AD34
:205AC00079AD8AAD9BAD0E9453349B01AC01C701B6010E94D0336CA37DA38EA39FA3DF9179
:205AE000CF91FF90EF90DF90CF900895FC018689978908951F920F920FB60F9211242F9355
:205B00003F938F939F93AF93BF938091830590918405A0918505B09186053091820523E0B6
:205B2000230F2D3720F40196A11DB11D05C026E8230F0296A11DB11D20938205809383059A
:205B400090938405A0938505B09386058091870590918805A0918905B0918A050196A11DDF
:205B6000B11D8093870590938805A0938905B0938A05BF91AF919F918F913F912F910F9066
:205B80000FBE0F901F9018952FB7F894609183057091840580918505909186052FBF0895F6
:205BA0003FB7F8948091870590918805A0918905B0918A0526B5A89B05C02F3F19F0019698
:205BC000A11DB11D3FBF6627782F892F9A2F620F711D811D911D42E0660F771F881F991FAF
:205BE0004A95D1F708958F929F92AF92BF92CF92DF92EF92FF926B017C010E94D02D4B01C5
:205C00005C01C114D104E104F104F1F00E94C1330E94D02D681979098A099B09683E7340FA
:205C20008105910570F321E0C21AD108E108F10888EE880E83E0981EA11CB11CC114D104F4
:205C4000E104F10429F7DDCFFF90EF90DF90CF90BF90AF909F908F9008958230910538F0D9
:205C6000880F991F880F991F05970197F1F70895789484B5826084BD84B5816084BD85B5D0
:205C8000826085BD85B5816085BDEEE6F0E0808181608083E1E8F0E01082808182608083E9
:205CA000808181608083E0E8F0E0808181608083E1EBF0E0808184608083E0EBF0E0808162
:205CC00081608083EAE7F0E0808184608083808182608083808181608083808180688083A0
:205CE0001092C1000895833081F028F4813099F08230A1F008958730A9F08830B9F08430E5
:205D0000D1F4809180008F7D03C0809180008F7780938000089584B58F7702C084B58F7D51
:205D200084BD08958091B0008F7703C08091B0008F7D8093B0000895CF93DF9390E0FC018D
:205D4000E858F84F2491FC01E457F84F8491882349F190E0880F991FFC01E655F84FA5911A
:205D6000B4918056984FFC01C591D4919FB7611108C0F8948C91209582238C938881822309
:205D80000AC0623051F4F8948C91322F309583238C938881822B888304C0F8948C91822BF3
:205DA0008C939FBFDF91CF9108950F931F93CF93DF931F92CDB7DEB7282F30E0F901EC5961
:205DC000F84F8491F901E858F84F1491F901E457F84F04910023C9F0882321F069830E940A
:205DE000732E6981E02FF0E0EE0FFF1FE056F84FA591B4919FB7F8948C91611103C010954D
:205E0000812301C0812B8C939FBF0F90DF91CF911F910F910895FC01818D228D90E0805C92
:205E20009F4F821B91098F7399270895FC01918D828D981731F0828DE80FF11D858D90E04E
:205E400008958FEF9FEF0895FC01918D828D981761F0828DDF01A80FB11D5D968C91928D2F
:205E60009F5F9F73928F90E008958FEF9FEF089588EA90E3892B49F080E090E0892B29F0CC
:205E80000E94A83081110C9400000895FC01848DDF01A80FB11DA35ABF4F2C91848D90E0FD
:205EA00001968F739927848FA689B7892C93A089B1898C9180648C93938D848D981306C023
:205EC0000288F389E02D80818F7D80830895CF93DF93EC01888D8823C9F0EA89FB898081D0
:205EE00085FD05C0A889B9898C9186FD0FC00FB607FCF5CF808185FFF2CFA889B9898C9117
:205F000085FFEDCFCE010E94462FE7CFDF91CF910895CF92DF92FF920F931F93CF93DF93AD
:205F20001F92CDB7DEB76C0181E0D60158968C9358975B969C915B975C968C915C97981339
:205F400007C05096ED91FC915197808185FD2EC0F601038D10E00F5F1F4F0F731127F02E05
:205F6000F601848DF81211C00FB607FCF9CFD6015096ED91FC915197808185FFF1CFC601F2
:205F800069830E94462F6981EBCF838DE80FF11DE35AFF4F6083D6015B960C935B97529696
:205FA000ED91FC915397808180620CC0D6015696ED91FC91579760835096ED91FC915197C5
:205FC00080818064808381E090E00F90DF91CF911F910F91FF90DF90CF900895BF92CF929D
:205FE000DF92EF92FF92CF93DF93EC016A017B01B22EE889F98982E08083411581EE58071A
:2060000061057105A1F060E079E08DE390E0A70196010E9427372150310941095109569521
:20602000479537952795211580E1380798F0E889F989108260E874E88EE190E0A701960157
:206040000E94273721503109410951095695479537952795EC85FD853083EE85FF85208362
:20606000188EEC89FD89B082EA89FB89808180618083EA89FB89808188608083EA89FB8997
:20608000808180688083EA89FB8980818F7D8083DF91CF91FF90EF90DF90CF90BF90089575
:2060A0001F920F920FB60F9211242F938F939F93EF93FF93E0919B05F0919C058081E09124
:2060C000A105F091A20582FD12C090818091A4058F5F8F732091A505821751F0E091A40597
:2060E000F0E0E557FA4F958F8093A40501C08081FF91EF919F918F912F910F900FBE0F907E
:206100001F9018951F920F920FB60F9211242F933F934F935F936F937F938F939F93AF9324
:20612000BF93EF93FF938BE895E00E94462FFF91EF91BF91AF919F918F917F916F915F910A
:206140004F913F912F910F900FBE0F901F9018958BE895E00E940B2F21E0892B09F420E0F2
:20616000822F089510928E0510928D0588EE93E0A0E0B0E080938F0590939005A093910547
:20618000B09392058AE994E090938C0580938B0585EC90E0909398058093970584EC90E0B7
:2061A00090939A058093990580EC90E090939C0580939B0581EC90E090939E0580939D05C1
:2061C00082EC90E09093A00580939F0586EC90E09093A2058093A1051092A4051092A50566
:2061E0001092A6051092A7050895CF92DF92EF92FF920F931F93CF93DF937C016A01EB0187
:2062000000E010E00C151D0571F06991D701ED91FC910190F081E02DC7010995892B19F0FB
:206220000F5F1F4FEFCFC801DF91CF911F910F91FF90EF90DF90CF9008956115710581F005
:20624000DB010D900020E9F7AD0141505109461B570BDC01ED91FC910280F381E02D0994E1
:2062600080E090E00895DC01ED91FC91DB0114964D915C9115976D917C910280F381E02DBE
:20628000099466EA74E00C941D310F931F93CF93DF93EC010E9433318C01CE010E94413144
:2062A000800F911FDF91CF911F910F9108950F931F93CF93DF93EC010E94C42D688779874B
:2062C0008A879B87E881F9810680F781E02DCE01099597FF15C00E94C42D088519852A8558
:2062E0003B85601B710B820B930B0C811D812E813F81601771078207930720F38FEF9FEFF1
:20630000DF91CF911F910F910895AF92BF92CF92DF92EF92FF920F931F93CF93DF936C01B5
:20632000790121153105B9F08A01C0E0D0E0A62EBB24A7FCB094C6010E94573197FD0EC006
:206340008A159B0559F0F80181938F012196CE15DF0589F703C080E090E001C0CE01DF9187
:20636000CF911F910F91FF90EF90DF90CF90BF90AF900895FC01808191810C942C38CF93F0
:20638000DF93EC0188819981009711F00E942C38198218821D821C821B821A82DF91CF9162
:2063A00008950F931F93CF93DF93EC018B016F5F7F4F888199810E94BB38009731F0998377
:2063C00088831B830A8381E001C080E0DF91CF911F910F910895CF93DF93EC018881998164
:2063E000892B29F08A819B818617970760F4CE010E94D131882341F08C819D81892B19F4DF
:20640000E881F981108281E0DF91CF910895EF92FF920F931F93CF93DF93EC017B018A010B
:20642000BA010E94EB31811104C0CE010E94BF3107C01D830C83B701888199810E94CE39B2
:20644000CE01DF91CF911F910F91FF90EF900895FC011182108213821282158214826115B4
:20646000710559F0FB0101900020E9F7AF0141505109461B570B0C9407320895CF93DF9328
:20648000EC01FB018617970761F0608171816115710529F0448155810E94073202C00E94D5
:2064A000BF31CE01DF91CF910895FC011182108213821282158214820C943E32CF93DF9354
:2064C000EC016115710561F0FB0101900020E9F7AF0141505109461B570B0E94073202C00A
:2064E0000E94BF31CE01DF91CF9108950F931F93CF93DF93CDB7DEB762970FB6F894DEBFA6
:206500000FBECDBF8C01CB01F80111821082138212821582148250E0BE016F5F7F4F0E9428
:20652000EF39BE016F5F7F4FC8010E945E3262960FB6F894DEBF0FBECDBFDF91CF911F911E
:206540000F910895EF92FF920F931F93CF93DF93EC017B010C811D816115710511F480E0DF
:2065600016C04115510591F0040F151FB8010E94EB318823A1F3288139818C819D81B701D5
:20658000820F931F0E94CE391D830C8381E0DF91CF911F910F91FF90EF900895CF93DF93E0
:2065A00000D0CDB7DEB769831A8241E050E0BE016F5F7F4F0E94A2320F900F90DF91CF913A
:2065C0000895CF93DF93EC01FB0144815581608171810E94A232811103C0CE010E94BF31C7
:2065E000CE01DF91CF910895CF93DF93EC016115710569F0FB0101900020E9F7AF0141508B
:206600005109461B570B0E94A232811103C0CE010E94BF31CE01DF91CF910895FC01248153
:206620003581232B31F421E061157105A1F0FB0108C0FC01808191816115710531F421E0CD
:20664000FC018081882339F005C00E94C53921E0892B09F020E0822F0895FC0184819581EF
:206660006817790720F480819181009729F41092280688E296E00895860F971F0895CF93A9
:20668000DF93FC01848195814817590778F4C081D181772767FD7095CE01840F951F0E94F3
:2066A000BA39009719F08C1B9D0B02C08FEF9FEFDF91CF91089540E050E00C943F33BF920A
:2066C000CF92DF92EF92FF920F931F93CF93DF936C017B01EA0189012417350720F48D2F09
:2066E000E901042F182F68EA74E0C6010E942832D70114968D919C911597C817D907C8F4D9
:206700008017910708F48C01D701ED91FC911197E00FF11FB08010826D917C916C0F7D1F53
:20672000C6010E945E32D701ED91FC91E00FF11FB082C601DF91CF911F910F91FF90EF9057
:20674000DF90CF90BF900895FC0180819181009711F00C948A3960E070E0CB0108950E94D9
:20676000853908950E94382E0E94B1330E94C708C8E3DFE20E9408102097E1F30E94382F05
:20678000F9CF08959F939F7764D10F9000203AF49058A2EA2AED3FE049E450E413D00DC26D
:2067A0005058BB27AA270ED008C2D1D130F0D6D120F031F49F3F11F41EF490C10EF4E0957B
:2067C000E7FB86C1E92F1BD280F3BA17620773078407950718F071F49EF533C20EF4E095D1
:2067E0000B2EBA2FA02D0B01B90190010C01CA01A0011124FF27591B99F0593F50F4503E18
:2068000068F11A16F040A22F232F342F4427585FF3CF469537952795A795F0405395C9F7DE
:206820007EF41F16BA0B620B730B840BBAF09150A1F0FF0FBB1F661F771F881FC2F70EC025
:20684000BA0F621F731F841F48F4879577956795B795F7959E3F08F0B3CF9395880F08F073
:206860009927EE0F9795879508959F939F77EEE389379E0720F4EEE7F0E058D109C0E9D094
:206880009058A2EA2AED3FE049EC5FE39BDF95D10F9007FC90580895F7D008F481E008950F
:2068A00065D1E3959BC10CD088C158D140F04FD130F021F45F3F19F00BC15111C3C10EC1D3
:2068C0009ED198F39923C9F35523B1F3951B550BBB27AA2762177307840738F09F5F5F4F15
:2068E000220F331F441FAA1FA9F333D00E2E3AF0E0E830D091505040E695001CCAF729D05A
:20690000FE2F27D0660F771F881FBB1F261737074807AB07B0E809F0BB0B802DBF01FF2761
:2069200093585F4F2AF09E3F510568F0D1C08AC15F3FECF3983EDCF3869577956795B795AC
